{
  "contractName": "Crowdsale",
  "abi": [
    {
      "constant": true,
      "inputs": [],
      "name": "deadline",
      "outputs": [
        {
          "name": "",
          "type": "uint256"
        }
      ],
      "payable": false,
      "stateMutability": "view",
      "type": "function"
    },
    {
      "constant": true,
      "inputs": [],
      "name": "beneficiary",
      "outputs": [
        {
          "name": "",
          "type": "address"
        }
      ],
      "payable": false,
      "stateMutability": "view",
      "type": "function"
    },
    {
      "constant": true,
      "inputs": [],
      "name": "amountRaised",
      "outputs": [
        {
          "name": "",
          "type": "uint256"
        }
      ],
      "payable": false,
      "stateMutability": "view",
      "type": "function"
    },
    {
      "constant": true,
      "inputs": [],
      "name": "price",
      "outputs": [
        {
          "name": "",
          "type": "uint256"
        }
      ],
      "payable": false,
      "stateMutability": "view",
      "type": "function"
    },
    {
      "constant": true,
      "inputs": [],
      "name": "limit",
      "outputs": [
        {
          "name": "",
          "type": "uint256"
        }
      ],
      "payable": false,
      "stateMutability": "view",
      "type": "function"
    },
    {
      "constant": true,
      "inputs": [
        {
          "name": "",
          "type": "uint256"
        }
      ],
      "name": "funders",
      "outputs": [
        {
          "name": "addr",
          "type": "address"
        },
        {
          "name": "amount",
          "type": "uint256"
        }
      ],
      "payable": false,
      "stateMutability": "view",
      "type": "function"
    },
    {
      "inputs": [
        {
          "name": "_beneficiary",
          "type": "address"
        },
        {
          "name": "_fundingGoal",
          "type": "uint256"
        },
        {
          "name": "_duration",
          "type": "uint256"
        },
        {
          "name": "_price",
          "type": "uint256"
        },
        {
          "name": "_reward",
          "type": "address"
        }
      ],
      "payable": false,
      "stateMutability": "nonpayable",
      "type": "constructor"
    },
    {
      "payable": false,
      "stateMutability": "nonpayable",
      "type": "fallback"
    },
    {
      "anonymous": false,
      "inputs": [
        {
          "indexed": false,
          "name": "backer",
          "type": "address"
        },
        {
          "indexed": false,
          "name": "amount",
          "type": "uint256"
        },
        {
          "indexed": false,
          "name": "IsContribution",
          "type": "bool"
        }
      ],
      "name": "FundTransfer",
      "type": "event"
    },
    {
      "constant": false,
      "inputs": [],
      "name": "checkGoalReached",
      "outputs": [],
      "payable": false,
      "stateMutability": "nonpayable",
      "type": "function"
    }
  ],
  "bytecode": "0x6080604052734f4986b5ebc5fd6cb1e43fea54fa6b1d28cf9a236000806101000a81548173ffffffffffffffffffffffffffffffffffffffff021916908373ffffffffffffffffffffffffffffffffffffffff16021790555034801561006457600080fd5b5060405160a080610b838339810180604052810190808051906020019092919080519060200190929190805190602001909291908051906020019092919080519060200190929190505050846000806101000a81548173ffffffffffffffffffffffffffffffffffffffff021916908373ffffffffffffffffffffffffffffffffffffffff16021790555061012f610113603c856101806401000000000261093c179091906401000000009004565b426101b864010000000002610481179091906401000000009004565b60028190555080600360006101000a81548173ffffffffffffffffffffffffffffffffffffffff021916908373ffffffffffffffffffffffffffffffffffffffff16021790555050505050506101d4565b60008083141561019357600090506101b2565b81830290508183828115156101a457fe5b041415156101ae57fe5b8090505b92915050565b600081830190508281101515156101cb57fe5b80905092915050565b6109a0806101e36000396000f300608060405260043610610083576000357c0100000000000000000000000000000000000000000000000000000000900463ffffffff16806301cb3b20146102f357806329dcb0cf1461030a57806338af3eed146103355780637b3e5e7b1461038c578063a035b1fe146103b7578063a4d66daf146103e2578063dc0d3dff1461040d575b34801561008f57600080fd5b50600034905060408051908101604052803373ffffffffffffffffffffffffffffffffffffffff1681526020018281525060048080548091906001016100d591906108bc565b8154811015156100e157fe5b906000526020600020906002020160008201518160000160006101000a81548173ffffffffffffffffffffffffffffffffffffffff021916908373ffffffffffffffffffffffffffffffffffffffff160217905550602082015181600101559050506101588160015461048190919063ffffffff16565b600181905550600360009054906101000a900473ffffffffffffffffffffffffffffffffffffffff1673ffffffffffffffffffffffffffffffffffffffff1663a9059cbb336101b7662386f26fc100008561049d90919063ffffffff16565b6040518363ffffffff167c0100000000000000000000000000000000000000000000000000000000028152600401808373ffffffffffffffffffffffffffffffffffffffff1673ffffffffffffffffffffffffffffffffffffffff16815260200182815260200192505050602060405180830381600087803b15801561023c57600080fd5b505af1158015610250573d6000803e3d6000fd5b505050506040513d602081101561026657600080fd5b8101908080519060200190929190505050507fe842aea7a5f1b01049d752008c53c52890b1a6daf660cf39e8eec506112bbdf633826001604051808473ffffffffffffffffffffffffffffffffffffffff1673ffffffffffffffffffffffffffffffffffffffff16815260200183815260200182151515158152602001935050505060405180910390a150005b3480156102ff57600080fd5b506103086104b3565b005b34801561031657600080fd5b5061031f610821565b6040518082815260200191505060405180910390f35b34801561034157600080fd5b5061034a610827565b604051808273ffffffffffffffffffffffffffffffffffffffff1673ffffffffffffffffffffffffffffffffffffffff16815260200191505060405180910390f35b34801561039857600080fd5b506103a161084c565b6040518082815260200191505060405180910390f35b3480156103c357600080fd5b506103cc610852565b6040518082815260200191505060405180910390f35b3480156103ee57600080fd5b506103f761085d565b6040518082815260200191505060405180910390f35b34801561041957600080fd5b5061043860048036038101908080359060200190929190505050610869565b604051808373ffffffffffffffffffffffffffffffffffffffff1673ffffffffffffffffffffffffffffffffffffffff1681526020018281526020019250505060405180910390f35b6000818301905082811015151561049457fe5b80905092915050565b600081838115156104aa57fe5b04905092915050565b600060025442101515156104c657600080fd5b68056bc75e2d631000006001541015156105e4576000809054906101000a900473ffffffffffffffffffffffffffffffffffffffff1673ffffffffffffffffffffffffffffffffffffffff166108fc6001549081150290604051600060405180830381858888f19350505050158015610543573d6000803e3d6000fd5b507fe842aea7a5f1b01049d752008c53c52890b1a6daf660cf39e8eec506112bbdf66000809054906101000a900473ffffffffffffffffffffffffffffffffffffffff166001546000604051808473ffffffffffffffffffffffffffffffffffffffff1673ffffffffffffffffffffffffffffffffffffffff16815260200183815260200182151515158152602001935050505060405180910390a16107e7565b7fe842aea7a5f1b01049d752008c53c52890b1a6daf660cf39e8eec506112bbdf66000600b6000604051808473ffffffffffffffffffffffffffffffffffffffff16815260200183815260200182151515158152602001935050505060405180910390a1600090505b6004805490508110156107e65760048181548110151561066957fe5b906000526020600020906002020160000160009054906101000a900473ffffffffffffffffffffffffffffffffffffffff1673ffffffffffffffffffffffffffffffffffffffff166108fc6004838154811015156106c357fe5b9060005260206000209060020201600101549081150290604051600060405180830381858888f19350505050158015610700573d6000803e3d6000fd5b507fe842aea7a5f1b01049d752008c53c52890b1a6daf660cf39e8eec506112bbdf660048281548110151561073157fe5b906000526020600020906002020160000160009054906101000a900473ffffffffffffffffffffffffffffffffffffffff1660048381548110151561077257fe5b9060005260206000209060020201600101546000604051808473ffffffffffffffffffffffffffffffffffffffff1673ffffffffffffffffffffffffffffffffffffffff16815260200183815260200182151515158152602001935050505060405180910390a1808060010191505061064d565b5b6000809054906101000a900473ffffffffffffffffffffffffffffffffffffffff1673ffffffffffffffffffffffffffffffffffffffff16ff5b60025481565b6000809054906101000a900473ffffffffffffffffffffffffffffffffffffffff1681565b60015481565b662386f26fc1000081565b670de0b6b3a764000081565b60048181548110151561087857fe5b90600052602060002090600202016000915090508060000160009054906101000a900473ffffffffffffffffffffffffffffffffffffffff16908060010154905082565b8154818355818111156108e9576002028160020283600052602060002091820191016108e891906108ee565b5b505050565b61093991905b8082111561093557600080820160006101000a81549073ffffffffffffffffffffffffffffffffffffffff02191690556001820160009055506002016108f4565b5090565b90565b60008083141561094f576000905061096e565b818302905081838281151561096057fe5b0414151561096a57fe5b8090505b929150505600a165627a7a72305820369bfd2db6cf2b90e520daf2adcfd1f8a3d7cc4e8f26de6c5c1004ddfd6073b60029",
  "source": "pragma solidity ^0.4.24;\r\nimport './Token.sol';\r\nimport './ERC223.sol';\r\nimport './ERC20.sol';\r\nimport './SafeMath.sol';\r\nimport './ERC223ReceivingContract.sol';\r\n\r\n// import \"zeppelin-solidity/contracts/crowdsale/validation/TimedCrowdsale.sol\"; \r\n// import \"zeppelin-solidity/contracts/crowdsale/validation/WhitelistedCrowdsale.sol\"; \r\n// import \"zeppelin-solidity/contracts/crowdsale/validation/CappedCrowdsale.sol\";\r\n\r\n// contract WhitelistedTimedCappedCrowdsale is TimedCrowdsale, WhitelistedCrowdsale, CappedCrowdsale {\r\n//     function WhitelistedTimeCappedCrowdsale (\r\n//         uint256 _rate,\r\n//         address _walle,\r\n//         ERC20 _token,\r\n//         uint256 _openingTime,\r\n//         uint256 _closingTime,\r\n//         uint256 _cap\r\n//     ) public\r\n//     Crowdsale (_rate, _wallet, _token)\r\n//     TimedCrowdsale(_openingTime, _closingTime)\r\n//     CappedCrowdsale(_cap) {\r\n        \r\n//     }\r\n// }\r\n\r\n\r\ncontract Crowdsale {\r\n    /** token creator */\r\n    address public beneficiary = 0x4f4986B5EBC5fd6Cb1E43FEA54Fa6b1d28Cf9a23;\r\n    uint constant private fundingGoal = 100 ether;\r\n    uint constant public price = 0.01 ether;\r\n    uint constant public limit = 1 ether;\r\n\r\n    /** using safe math */\r\n    using SafeMath for uint256;\r\n    \r\n    /** amout of ether raised */\r\n    uint public amountRaised;\r\n    /** crowdsale deadline */\r\n    uint public deadline;\r\n    Token private tokenReward;\r\n    Funder[] public funders;\r\n\r\n    /** mapping\r\n        limit of purchaser\r\n     */\r\n    mapping (address => uint) private _limits;\r\n\r\n    /** event\r\n        check fundtransder\r\n     */\r\n    event FundTransfer(address backer, uint amount, bool IsContribution);\r\n\r\n    /** \r\n        data structure to hold information about campaign contributors \r\n    */\r\n    struct Funder {\r\n        address addr;\r\n        uint amount;\r\n    }\r\n\r\n    /** modifier\r\n     check if deadline is came\r\n     */\r\n    modifier afterDeadline() {\r\n        require(now >= deadline);\r\n        _;\r\n    }\r\n\r\n    // limit of purchase\r\n    modifier limitOfPurchase(address _beneficiary) {\r\n        require(_limits[_beneficiary] < limit);\r\n        _;\r\n    }\r\n\r\n    /** at initialization  setup user  */\r\n    function Crowdsale(\r\n        address _beneficiary, \r\n        uint _fundingGoal,\r\n        uint _duration,\r\n        uint _price,\r\n        Token _reward\r\n        ) public {\r\n        beneficiary = _beneficiary;\r\n        deadline = now.add(_duration.mul(1 minutes));\r\n        tokenReward = _reward;\r\n    }\r\n\r\n    /** the function without name is\r\n     default function that is called whenever anyone sends\r\n     fund - fallback function\r\n     */\r\n     function () public {\r\n         uint amount = msg.value;\r\n         funders[funders.length++] = Funder({addr: msg.sender, amount: amount});\r\n         amountRaised = amountRaised.add(amount);\r\n         tokenReward.transfer(msg.sender, amount.div(price));\r\n         emit FundTransfer(msg.sender, amount, true);\r\n     }\r\n\r\n     /** check if the goal \r\n        or time limit has been reached and ends the campaign \r\n     */\r\n    function checkGoalReached() afterDeadline {\r\n        if (amountRaised >= fundingGoal){\r\n            beneficiary.transfer(amountRaised);\r\n            emit FundTransfer(beneficiary, amountRaised, false);\r\n        } else {\r\n            emit FundTransfer(0, 11, false);\r\n            for (uint i = 0; i <funders.length; i++){\r\n                funders[i].addr.transfer(funders[i].amount);\r\n                emit FundTransfer(funders[i].addr, funders[i].amount, false);\r\n            }\r\n        }\r\n        selfdestruct(beneficiary);\r\n        /** because selfdestruct was removed from v0.4.24 */\r\n    }\r\n\r\n}",
  "sourcePath": "D:\\code\\blockchain\\truffle\\crowdsale\\contracts\\Crowdsale.sol",
  "compiler": {
    "name": "solc",
    "version": "0.4.24+commit.e67f0147.Emscripten.clang"
  },
  "schemaVersion": "2.0.1",
  "updatedAt": "2018-08-02T03:35:52.843Z"
}